:0300000002051ED8
:0100030032CA
:03000B00020113DC
:0100130032BA
:01001B0032B2
:0100230032AA
:03002B0002012DA2
:10002E00C00078B10000D8FCD00022C000C0017919
:10003E002D78A6D8FED9FADAF6D001D00022D293C6
:10004E0012002EC29322A2E792B5A2E692B4A2E5C6
:10005E0092B3A2E492B212004C12002EA2E392B519
:10006E00A2E292B4A2E192B3A2E092B212004C22AA
:10007E00D291020054C291020054C293C2927433C0
:10008E0012008374331200837432120083742812A8
:10009E000083740C1200837401120083C0027A0272
:1000AE00120039D00222E493600612007EA380F67D
:1000BE002244404480020083C0E0E8C4540F443020
:1000CE0012007EE8540F443012007ED0E022E58903
:1000DE0054F04401F589758CEA758AE875F4EA7571
:1000EE00F2E8D2A9D28C753601753300753A0075D7
:1000FE003F007545007554017557007559007556CA
:10010E0000755D99223275C80075CDA975CC9A75AA
:10011E00CBA975CA9AE4F530F531D2ADD2CA22C256
:10012E00CFB2B6C0E0C0D00530E53070020531E583
:10013E0030B4E841E531B4033CD200B28CE4F53082
:10014E00F531E532308004240180022499D4B46064
:10015E00027400F532B4001DE5332401D4B46002FC
:10016E007400F533B4000EE5362401D4B4130274D2
:10017E0001F5367400D0D0D0E03274401200837492
:10018E000712007E740F12007E741F12007E741F01
:10019E0012007E741F12007E741F12007E741F12D6
:1001AE00007E741F12007E741F12007E741F1200D8
:1001BE007E741F12007E740012007E740012007E88
:1001CE00740012007E740012007E740012007E74A1
:1001DE001C12007E741E12007E741F12007E741F8D
:1001EE0012007E741F12007E741F12007E741F1286
:1001FE00007E741F12007E741F12007E741F120088
:10020E007E741F12007E741F12007E741F12007EF9
:10021E00741F12007E740F12007E740712007E741B
:10022E000012007E740012007E740012007E7400B4
:10023E0012007E740012007E741F12007E741F1254
:10024E00007E741F12007E741F12007E741F120037
:10025E007E741F12007E741F12007E741F12007EA9
:10026E00741F12007E741E12007E741C12007E74A7
:10027E001F12007E741F12007E741F12007E740007
:10028E0012007E740012007E740012007E741F1223
:10029E00007E741F12007E741F12007E7400120006
:1002AE007E740012007E740012007E740012007EB6
:1002BE00741F12007E741F12007E741F12007E22A5
:1002CE00E94480120083740012007E740112007ED5
:1002DE00740212007E742012007EE944C012008364
:1002EE00740312007E740412007E740512007E7474
:1002FE002012007E22E94480120083740112007ED7
:10030E00740212007E742012007E742012007EE9A8
:10031E0044C0120083740412007E74FF12007E74B7
:10032E000412007E742012007E22E94480120083A3
:10033E00740612007E740612007E740212007E7421
:10034E002012007EE944C0120083740312007E74F2
:10035E000712007E740712007E742012007E22E9BE
:10036E004480120083740612007E740612007E749E
:10037E000212007E742012007EE944C012008374C3
:10038E000712007E740712007E740512007E742020
:10039E0012007E22E94480120083740312007E74E0
:1003AE000412007E740212007E742012007EE94454
:1003BE00C0120083742012007E742012007E74FF1F
:1003CE0012007E742012007E22E944801200837493
:1003DE00FF12007E740612007E740612007E7420D8
:1003EE0012007EE944C0120083740712007E740767
:1003FE0012007E740512007E742012007E22E944E3
:10040E0080120083740012007E740612007E740641
:10041E0012007E742012007EE944C0120083740321
:10042E0012007E740712007E740512007E74201274
:10043E00007E22E94480120083740112007E740152
:10044E0012007E740212007E742012007EE944C0F7
:10045E00120083742012007E742012007E7400122B
:10046E00007E742012007E22E94480120083740004
:10047E0012007E740612007E740212007E74201228
:10048E00007EE944C0120083740312007E740712CA
:10049E00007E740512007E742012007E22E94480D4
:1004AE00120083740012007E740612007E74021213
:1004BE00007E742012007EE944C012008374201264
:1004CE00007E742012007E74FF12007E74201200D3
:1004DE007E2275F003A49004E8730202CE02030399
:1004EE0002033802036D0203A20203D702040C02B8
:1004FE0004410204760204ABC0E088F0A9F0C454B3
:10050E000F1204E0E82403F9D0E0540F1204E022A5
:10051E0075817F1200DC12011475E60075E700D2BA
:10052E00AF120088120188D200D28175320020A449
:10053E002BC0027A32120039D00220A41F30A4FD43
:10054E0085363F853345853A4C7408120083C002C8
:10055E007AFF120039D002740E12008320C523C018
:10056E00027A32120039D00220C51730C5FDC2CA38
:10057E00E5332401F533D4B460027400F533D2CAE6
:10058E008029208123C0027A32120039D0022081C4
:10059E00173081FDC2CAE5362401F536D4B41302F4
:1005AE007401F536D2CA8003300083C2007800E5AC
:1005BE00361205067807E53312050620A173C00230
:1005CE007A32120039D00220A16730A1FD75560192
:1005DE00753201E556B40159E5322401C0027AFFA5
:1005EE00120039D002C0027AFF120039D002C002C6
:1005FE007AFF120039D002C0027AFF120039D002FF
:10060E00D4F532B4600BE5572401F55774007532FA
:10061E00007807E5321205067800E5571205062028
:10062E00A1B6C0027A32120039D00220A1AA30A19E
:10063E00FD20A57DC0027A32120039D00220A571AC
:10064E0030A5FDE55DD49401F55DB490047489F593
:10065E005DB480047479F55DB470047469F55DB4AD
:10066E0060047459F55DB450047449F55D780074F6
:10067E00001205067807E55D120506C0027AFF1224
:10068E000039D002C0027AFF120039D002C0027ABD
:10069E00FF120039D002C0027AFF120039D00220B8
:1006AE00A5A1C0027A32120039D00220A59530A53C
:1006BE00FD20845EC0027A32120039D002208452AC
:1006CE003084FD7800E53F1205067807E5451205F2
:1006DE000674C6120083742E12007E748612008376
:1006EE00742E12007EC0027AFF120039D002C002B0
:1006FE007AFF120039D002C0027AFF120039D002FE
:10070E00C0027AFF120039D002C0027AFF120039FD
:10071E00D00220A012C0027A32120039D00220A0DC
:10072E000630A0FD755400E536B53F17E533B545E7
:10073E000CE53AB54C0DE554B40108B2B775540149
:10074E000207517486120083742E12007EC0E0746C
:10075E000F141200C1D0E0C000A8321200C6D000A3
:10076E0074C6120083742E12007E74CF120083742E
:10077E006D12007EAA36BA110DAA33BA5908AA32E2
:10078E00BA590302079CAA3ABA00210207ADAA3A47
:10079E00BA0006753A01020794753A00020794747E
:1007AE00CE120083746112007E02053C74CE1200DC
:0907BE0083747012007E02053CF8
:00000001FF
